{
  "contractName": "Netflix",
  "abi": [
    {
      "constant": false,
      "inputs": [
        {
          "internalType": "string",
          "name": "_name",
          "type": "string"
        },
        {
          "internalType": "string",
          "name": "_description",
          "type": "string"
        },
        {
          "internalType": "uint256",
          "name": "_price",
          "type": "uint256"
        }
      ],
      "name": "listItem",
      "outputs": [],
      "payable": false,
      "stateMutability": "nonpayable",
      "type": "function"
    },
    {
      "constant": true,
      "inputs": [],
      "name": "viewAvailItems",
      "outputs": [
        {
          "internalType": "string",
          "name": "",
          "type": "string"
        }
      ],
      "payable": false,
      "stateMutability": "view",
      "type": "function"
    },
    {
      "constant": false,
      "inputs": [
        {
          "internalType": "uint256",
          "name": "listing_id",
          "type": "uint256"
        },
        {
          "internalType": "string",
          "name": "_public_key",
          "type": "string"
        }
      ],
      "name": "buyItem",
      "outputs": [],
      "payable": true,
      "stateMutability": "payable",
      "type": "function"
    },
    {
      "constant": true,
      "inputs": [
        {
          "internalType": "uint256",
          "name": "listing_id",
          "type": "uint256"
        }
      ],
      "name": "get_public_key",
      "outputs": [
        {
          "internalType": "string",
          "name": "",
          "type": "string"
        }
      ],
      "payable": false,
      "stateMutability": "view",
      "type": "function"
    },
    {
      "constant": false,
      "inputs": [
        {
          "internalType": "string",
          "name": "message",
          "type": "string"
        },
        {
          "internalType": "uint256",
          "name": "listing_id",
          "type": "uint256"
        }
      ],
      "name": "send_encrypted_string",
      "outputs": [],
      "payable": true,
      "stateMutability": "payable",
      "type": "function"
    },
    {
      "constant": true,
      "inputs": [
        {
          "internalType": "uint256",
          "name": "listing_id",
          "type": "uint256"
        }
      ],
      "name": "get_encrypted_string",
      "outputs": [
        {
          "internalType": "string",
          "name": "",
          "type": "string"
        }
      ],
      "payable": false,
      "stateMutability": "view",
      "type": "function"
    }
  ],
  "bytecode": "0x6080604052600080556000600155600060025534801561001e57600080fd5b506120ef8061002e6000396000f3fe6080604052600436106100555760003560e01c80630562021c1461005a5780634736862e146101c35780634e71b35c146102885780635dd6db761461034d5780638d2ddf0e146103dd578063bc0a3f5c14610491575b600080fd5b34801561006657600080fd5b506101c16004803603606081101561007d57600080fd5b810190808035906020019064010000000081111561009a57600080fd5b8201836020820111156100ac57600080fd5b803590602001918460018302840111640100000000831117156100ce57600080fd5b91908080601f016020809104026020016040519081016040528093929190818152602001838380828437600081840152601f19601f8201169050808301925050505050505091929192908035906020019064010000000081111561013157600080fd5b82018360208201111561014357600080fd5b8035906020019184600183028401116401000000008311171561016557600080fd5b91908080601f016020809104026020016040519081016040528093929190818152602001838380828437600081840152601f19601f82011690508083019250505050505050919291929080359060200190929190505050610545565b005b610286600480360360408110156101d957600080fd5b81019080803590602001906401000000008111156101f657600080fd5b82018360208201111561020857600080fd5b8035906020019184600183028401116401000000008311171561022a57600080fd5b91908080601f016020809104026020016040519081016040528093929190818152602001838380828437600081840152601f19601f820116905080830192505050505050509192919290803590602001909291905050506109db565b005b61034b6004803603604081101561029e57600080fd5b8101908080359060200190929190803590602001906401000000008111156102c557600080fd5b8201836020820111156102d757600080fd5b803590602001918460018302840111640100000000831117156102f957600080fd5b91908080601f016020809104026020016040519081016040528093929190818152602001838380828437600081840152601f19601f820116905080830192505050505050509192919290505050610d08565b005b34801561035957600080fd5b50610362610fb1565b6040518080602001828103825283818151815260200191508051906020019080838360005b838110156103a2578082015181840152602081019050610387565b50505050905090810190601f1680156103cf5780820380516001836020036101000a031916815260200191505b509250505060405180910390f35b3480156103e957600080fd5b506104166004803603602081101561040057600080fd5b810190808035906020019092919050505061174d565b6040518080602001828103825283818151815260200191508051906020019080838360005b8381101561045657808201518184015260208101905061043b565b50505050905090810190601f1680156104835780820380516001836020036101000a031916815260200191505b509250505060405180910390f35b34801561049d57600080fd5b506104ca600480360360208110156104b457600080fd5b8101908080359060200190929190505050611a2f565b6040518080602001828103825283818151815260200191508051906020019080838360005b8381101561050a5780820151818401526020810190506104ef565b50505050905090810190601f1680156105375780820380516001836020036101000a031916815260200191505b509250505060405180910390f35b6000600660003373ffffffffffffffffffffffffffffffffffffffff1673ffffffffffffffffffffffffffffffffffffffff1681526020019081526020016000205414156107e7576000808154809291906001019190505550600054600660003373ffffffffffffffffffffffffffffffffffffffff1673ffffffffffffffffffffffffffffffffffffffff1681526020019081526020016000208190555033600460008054815260200190815260200160002060006101000a81548173ffffffffffffffffffffffffffffffffffffffff021916908373ffffffffffffffffffffffffffffffffffffffff1602179055506007604051806101400160405280600254815260200185815260200184815260200183815260200160005481526020016000815260200160008152602001600081526020016040518060400160405280600281526020017f4e4100000000000000000000000000000000000000000000000000000000000081525081526020016040518060400160405280600281526020017f4e410000000000000000000000000000000000000000000000000000000000008152508152509080600181540180825580915050906001820390600052602060002090600a020160009091929091909150600082015181600001556020820151816001019080519060200190610741929190611ed2565b50604082015181600201908051906020019061075e929190611ed2565b50606082015181600301556080820151816004015560a0820151816005015560c0820151816006015560e082015181600701556101008201518160080190805190602001906107ae929190611ed2565b506101208201518160090190805190602001906107cc929190611ed2565b505050506002600081548092919060010191905055506109d6565b6000600660003373ffffffffffffffffffffffffffffffffffffffff1673ffffffffffffffffffffffffffffffffffffffff168152602001908152602001600020549050600760405180610140016040528060025481526020018681526020018581526020018481526020018381526020016000815260200160008152602001600081526020016040518060400160405280600281526020017f4e4100000000000000000000000000000000000000000000000000000000000081525081526020016040518060400160405280600281526020017f4e410000000000000000000000000000000000000000000000000000000000008152508152509080600181540180825580915050906001820390600052602060002090600a020160009091929091909150600082015181600001556020820151816001019080519060200190610933929190611ed2565b506040820151816002019080519060200190610950929190611ed2565b50606082015181600301556080820151816004015560a0820151816005015560c0820151816006015560e082015181600701556101008201518160080190805190602001906109a0929190611ed2565b506101208201518160090190805190602001906109be929190611ed2565b50505050600260008154809291906001019190505550505b505050565b6000600660003373ffffffffffffffffffffffffffffffffffffffff1673ffffffffffffffffffffffffffffffffffffffff168152602001908152602001600020541415610a91576040517f08c379a00000000000000000000000000000000000000000000000000000000081526004018080602001828103825260148152602001807f596f7520617265206e6f7420612073656c6c657200000000000000000000000081525060200191505060405180910390fd5b600660003373ffffffffffffffffffffffffffffffffffffffff1673ffffffffffffffffffffffffffffffffffffffff1681526020019081526020016000205460078281548110610ade57fe5b90600052602060002090600a02016004015414610b63576040517f08c379a00000000000000000000000000000000000000000000000000000000081526004018080602001828103825260198152602001807f4974656d206973206e6f74206c697374656420627920796f750000000000000081525060200191505060405180910390fd5b600160078281548110610b7257fe5b90600052602060002090600a02016005015414610bf7576040517f08c379a00000000000000000000000000000000000000000000000000000000081526004018080602001828103825260138152602001807f4974656d206e6f7420626f75676874207965740000000000000000000000000081525060200191505060405180910390fd5b8160078281548110610c0557fe5b90600052602060002090600a02016009019080519060200190610c29929190611f52565b50600160078281548110610c3957fe5b90600052602060002090600a0201600601819055506004600060078381548110610c5f57fe5b90600052602060002090600a020160040154815260200190815260200160002060009054906101000a900473ffffffffffffffffffffffffffffffffffffffff1673ffffffffffffffffffffffffffffffffffffffff166108fc60078381548110610cc657fe5b90600052602060002090600a0201600301549081150290604051600060405180830381858888f19350505050158015610d03573d6000803e3d6000fd5b505050565b60078281548110610d1557fe5b90600052602060002090600a0201600301543414610d7e576040517f08c379a00000000000000000000000000000000000000000000000000000000081526004018080602001828103825260448152602001806120776044913960600191505060405180910390fd5b6000600560003373ffffffffffffffffffffffffffffffffffffffff1673ffffffffffffffffffffffffffffffffffffffff168152602001908152602001600020541415610ef357600160008154809291906001019190505550600154600560003373ffffffffffffffffffffffffffffffffffffffff1673ffffffffffffffffffffffffffffffffffffffff168152602001908152602001600020819055503360036000600154815260200190815260200160002060006101000a81548173ffffffffffffffffffffffffffffffffffffffff021916908373ffffffffffffffffffffffffffffffffffffffff160217905550600160078381548110610e8157fe5b90600052602060002090600a0201600501819055508060078381548110610ea457fe5b90600052602060002090600a02016008019080519060200190610ec8929190611f52565b5060015460078381548110610ed957fe5b90600052602060002090600a020160070181905550610fad565b600160078381548110610f0257fe5b90600052602060002090600a0201600501819055508060078381548110610f2557fe5b90600052602060002090600a02016008019080519060200190610f49929190611f52565b50600560003373ffffffffffffffffffffffffffffffffffffffff1673ffffffffffffffffffffffffffffffffffffffff1681526020019081526020016000205460078381548110610f9757fe5b90600052602060002090600a0201600701819055505b5050565b606080604051806020016040528060008152509050600080905060008090505b60078054905081101561165e57610fe6611fd2565b60078281548110610ff357fe5b90600052602060002090600a02016040518061014001604052908160008201548152602001600182018054600181600116156101000203166002900480601f0160208091040260200160405190810160405280929190818152602001828054600181600116156101000203166002900480156110b05780601f10611085576101008083540402835291602001916110b0565b820191906000526020600020905b81548152906001019060200180831161109357829003601f168201915b50505050508152602001600282018054600181600116156101000203166002900480601f0160208091040260200160405190810160405280929190818152602001828054600181600116156101000203166002900480156111525780601f1061112757610100808354040283529160200191611152565b820191906000526020600020905b81548152906001019060200180831161113557829003601f168201915b505050505081526020016003820154815260200160048201548152602001600582015481526020016006820154815260200160078201548152602001600882018054600181600116156101000203166002900480601f0160208091040260200160405190810160405280929190818152602001828054600181600116156101000203166002900480156112265780601f106111fb57610100808354040283529160200191611226565b820191906000526020600020905b81548152906001019060200180831161120957829003601f168201915b50505050508152602001600982018054600181600116156101000203166002900480601f0160208091040260200160405190810160405280929190818152602001828054600181600116156101000203166002900480156112c85780601f1061129d576101008083540402835291602001916112c8565b820191906000526020600020905b8154815290600101906020018083116112ab57829003601f168201915b505050505081525050905060008160a001511415611652578280600101935050836112f68260000151611da5565b8260200151836040015161130d8560600151611da5565b6040516020018086805190602001908083835b602083106113435780518252602082019150602081019050602083039250611320565b6001836020036101000a038019825116818451168082178552505050505050905001807f0a0a000000000000000000000000000000000000000000000000000000000000815250600201807f2a2a2a2a2a2a2a2a2a2a2a2a2a2a2a2a2a2a2a2a2a2a2a2a2a2a000000000000815250601a01807f0a00000000000000000000000000000000000000000000000000000000000000815250600101807f4c697374696e672049643a200000000000000000000000000000000000000000815250600c0185805190602001908083835b602083106114345780518252602082019150602081019050602083039250611411565b6001836020036101000a038019825116818451168082178552505050505050905001807f0a00000000000000000000000000000000000000000000000000000000000000815250600101807f4e616d653a20000000000000000000000000000000000000000000000000000081525060060184805190602001908083835b602083106114d557805182526020820191506020810190506020830392506114b2565b6001836020036101000a038019825116818451168082178552505050505050905001807f0a00000000000000000000000000000000000000000000000000000000000000815250600101807f4465736372697074696f6e3a2000000000000000000000000000000000000000815250600d0183805190602001908083835b602083106115765780518252602082019150602081019050602083039250611553565b6001836020036101000a038019825116818451168082178552505050505050905001807f0a00000000000000000000000000000000000000000000000000000000000000815250600101807f50726963653a200000000000000000000000000000000000000000000000000081525060070182805190602001908083835b6020831061161757805182526020820191506020810190506020830392506115f4565b6001836020036101000a0380198251168184511680821785525050505050509050019550505050505060405160208183030381529060405293505b50600181019050610fd1565b506000811461172957816040516020018082805190602001908083835b6020831061169e578051825260208201915060208101905060208303925061167b565b6001836020036101000a038019825116818451168082178552505050505050905001807f0a00000000000000000000000000000000000000000000000000000000000000815250600101807f2a2a2a2a2a2a2a2a2a2a2a2a2a2a2a2a2a2a2a2a2a2a2a2a2a2a2a0000000000815250601b019150506040516020818303038152906040529150611745565b6040518060600160405280602c815260200161204b602c913991505b819250505090565b60606000600660003373ffffffffffffffffffffffffffffffffffffffff1673ffffffffffffffffffffffffffffffffffffffff168152602001908152602001600020541415611805576040517f08c379a00000000000000000000000000000000000000000000000000000000081526004018080602001828103825260148152602001807f596f7520617265206e6f7420612073656c6c657200000000000000000000000081525060200191505060405180910390fd5b600660003373ffffffffffffffffffffffffffffffffffffffff1673ffffffffffffffffffffffffffffffffffffffff168152602001908152602001600020546007838154811061185257fe5b90600052602060002090600a020160040154146118d7576040517f08c379a00000000000000000000000000000000000000000000000000000000081526004018080602001828103825260198152602001807f4974656d206973206e6f74206c697374656420627920796f750000000000000081525060200191505060405180910390fd5b6001600783815481106118e657fe5b90600052602060002090600a0201600501541461196b576040517f08c379a00000000000000000000000000000000000000000000000000000000081526004018080602001828103825260138152602001807f4974656d206e6f7420626f75676874207965740000000000000000000000000081525060200191505060405180910390fd5b60606007838154811061197a57fe5b90600052602060002090600a02016008018054600181600116156101000203166002900480601f016020809104026020016040519081016040528092919081815260200182805460018160011615610100020316600290048015611a1f5780601f106119f457610100808354040283529160200191611a1f565b820191906000526020600020905b815481529060010190602001808311611a0257829003601f168201915b5050505050905080915050919050565b60606000600560003373ffffffffffffffffffffffffffffffffffffffff1673ffffffffffffffffffffffffffffffffffffffff168152602001908152602001600020541415611ae7576040517f08c379a00000000000000000000000000000000000000000000000000000000081526004018080602001828103825260138152602001807f596f7520617265206e6f7420612042757965720000000000000000000000000081525060200191505060405180910390fd5b600560003373ffffffffffffffffffffffffffffffffffffffff1673ffffffffffffffffffffffffffffffffffffffff1681526020019081526020016000205460078381548110611b3457fe5b90600052602060002090600a02016007015414611bb9576040517f08c379a00000000000000000000000000000000000000000000000000000000081526004018080602001828103825260198152602001807f4974656d206973206e6f7420626f7567687420627920796f750000000000000081525060200191505060405180910390fd5b600160078381548110611bc857fe5b90600052602060002090600a02016005015414611c4d576040517f08c379a00000000000000000000000000000000000000000000000000000000081526004018080602001828103825260138152602001807f4974656d206e6f7420626f75676874207965740000000000000000000000000081525060200191505060405180910390fd5b600160078381548110611c5c57fe5b90600052602060002090600a02016006015414611ce1576040517f08c379a00000000000000000000000000000000000000000000000000000000081526004018080602001828103825260168152602001807f4974656d206e6f742064656c697665726564207965740000000000000000000081525060200191505060405180910390fd5b606060078381548110611cf057fe5b90600052602060002090600a02016009018054600181600116156101000203166002900480601f016020809104026020016040519081016040528092919081815260200182805460018160011615610100020316600290048015611d955780601f10611d6a57610100808354040283529160200191611d95565b820191906000526020600020905b815481529060010190602001808311611d7857829003601f168201915b5050505050905080915050919050565b60606000821415611ded576040518060400160405280600181526020017f30000000000000000000000000000000000000000000000000000000000000008152509050611ecd565b600082905060005b60008214611e17578080600101915050600a8281611e0f57fe5b049150611df5565b6060816040519080825280601f01601f191660200182016040528015611e4c5781602001600182028038833980820191505090505b50905060008290508593505b60008414611ec557600a8481611e6a57fe5b0660300160f81b82826001900392508281518110611e8457fe5b60200101907effffffffffffffffffffffffffffffffffffffffffffffffffffffffffffff1916908160001a905350600a8481611ebd57fe5b049350611e58565b819450505050505b919050565b828054600181600116156101000203166002900490600052602060002090601f016020900481019282601f10611f1357805160ff1916838001178555611f41565b82800160010185558215611f41579182015b82811115611f40578251825591602001919060010190611f25565b5b509050611f4e9190612025565b5090565b828054600181600116156101000203166002900490600052602060002090601f016020900481019282601f10611f9357805160ff1916838001178555611fc1565b82800160010185558215611fc1579182015b82811115611fc0578251825591602001919060010190611fa5565b5b509050611fce9190612025565b5090565b604051806101400160405280600081526020016060815260200160608152602001600081526020016000815260200160008152602001600081526020016000815260200160608152602001606081525090565b61204791905b8082111561204357600081600090555060010161202b565b5090565b9056fe4e4f204e4554464c49582053435245454e53204152452043555252454e544c5920555020464f522053414c4557726f6e6720616d6f756e7420706169642e20506c65617365207061792074686520636f727265637420616d6f756e7420746f20636c61696d20796f7572206974656d2ea265627a7a723158202d7bc18cadcbba829290757424151f4de1c360792871b24277ea826c33360e0064736f6c63430005100032",
  "source": "// SPDX-License-Identifier: MIT\npragma solidity 0.5.16;\n\ncontract Netflix {\n    struct Item{\n        uint listing_id;\n        string name;\n        string description;\n        uint price;\n        uint seller_id;\n        uint bought;\n        uint delivered;\n        uint buyer_id;\n        string buyer_public_key;\n        string encrypted_msg;\n    }\n\n    uint sellers = 0;\n    uint buyers = 0;\n    uint listed_items = 0;\n    mapping (uint => address) buyers_mapping;\n    mapping (uint => address payable) sellers_mapping;\n\n    mapping (address => uint) reverse_buyers_mapping;\n    mapping (address => uint) reverse_sellers_mapping;\n\n    Item[] listedItems;\n\n    function uint2str(uint256 _i) internal pure returns (string memory str)\n    {\n        if (_i == 0)\n        {\n            return \"0\";\n        }\n        uint256 j = _i;\n        uint256 length;\n        while (j != 0)\n        {\n            length++;\n            j /= 10;\n        }\n        bytes memory bstr = new bytes(length);\n        uint256 k = length;\n        j = _i;\n        while (j != 0)\n        {\n            bstr[--k] = bytes1(uint8(48 + j % 10));\n            j /= 10;\n        }\n        str = string(bstr);\n    }\n\n    function listItem(string memory _name, string memory _description, uint _price) public\n    {\n        if(reverse_sellers_mapping[msg.sender]==0)\n        {\n            sellers++;\n            reverse_sellers_mapping[msg.sender] = sellers;\n            sellers_mapping[sellers] = address(uint160(msg.sender));\n            listedItems.push(Item(listed_items,_name,_description,_price,sellers,0,0,0,\"NA\",\"NA\"));\n            listed_items++;\n        }\n        else\n        {\n            uint temp_seller_id = reverse_sellers_mapping[msg.sender];\n            listedItems.push(Item(listed_items,_name,_description,_price,temp_seller_id,0,0,0,\"NA\",\"NA\"));\n            listed_items++;\n        }\n    }\n\n    function viewAvailItems() public view returns(string memory)\n    {\n        string memory ret = \"\";\n        uint counter= 0;\n        for (uint i=0; i < listedItems.length; i+=1) \n        {\n            Item memory cur = listedItems[i];\n            if (cur.bought == 0)\n            {\n                counter++;\n                ret = string(abi.encodePacked(ret,\"\\n\\n\",\"**************************\",\"\\n\",\"Listing Id: \",uint2str(cur.listing_id),\"\\n\",\"Name: \",cur.name,\"\\n\",\"Description: \",cur.description,\"\\n\",\"Price: \",uint2str(cur.price)));\n            }\n        }\n        if(counter!=0)\n        {\n            ret = string(abi.encodePacked(ret,\"\\n\",\"***************************\"));\n        }\n        else \n        {\n            ret = \"NO NETFLIX SCREENS ARE CURRENTLY UP FOR SALE\";\n        }\n        return ret;\n    }\n\n    function buyItem(uint listing_id,string memory _public_key) public payable\n    {\n        require(msg.value==listedItems[listing_id].price,\"Wrong amount paid. Please pay the correct amount to claim your item.\");\n        if(reverse_buyers_mapping[msg.sender]==0)\n        {\n            buyers++;\n            reverse_buyers_mapping[msg.sender] = buyers;\n            buyers_mapping[buyers] = msg.sender;\n            listedItems[listing_id].bought = 1;\n            listedItems[listing_id].buyer_public_key = _public_key;\n            listedItems[listing_id].buyer_id = buyers;\n        }\n        else\n        {\n            listedItems[listing_id].bought = 1;\n            listedItems[listing_id].buyer_public_key = _public_key;\n            listedItems[listing_id].buyer_id = reverse_buyers_mapping[msg.sender];\n        }\n    }\n\n    function get_public_key(uint listing_id) public view returns(string memory)\n    {\n        require(reverse_sellers_mapping[msg.sender]!=0,\"You are not a seller\");\n        require(listedItems[listing_id].seller_id==reverse_sellers_mapping[msg.sender],\"Item is not listed by you\");\n        require(listedItems[listing_id].bought==1,\"Item not bought yet\");\n        string memory ret = listedItems[listing_id].buyer_public_key;\n        \n        return ret;\n    }\n\n    function send_encrypted_string(string memory message,uint listing_id) public payable\n    {\n        require(reverse_sellers_mapping[msg.sender]!=0,\"You are not a seller\");\n        require(listedItems[listing_id].seller_id==reverse_sellers_mapping[msg.sender],\"Item is not listed by you\");\n        require(listedItems[listing_id].bought==1,\"Item not bought yet\");\n        listedItems[listing_id].encrypted_msg = message;\n        listedItems[listing_id].delivered = 1;\n        sellers_mapping[listedItems[listing_id].seller_id].transfer(listedItems[listing_id].price);\n    } \n\n    function get_encrypted_string(uint listing_id) public view returns(string memory)\n    {\n        require(reverse_buyers_mapping[msg.sender]!=0,\"You are not a Buyer\");\n        require(listedItems[listing_id].buyer_id==reverse_buyers_mapping[msg.sender],\"Item is not bought by you\");\n        require(listedItems[listing_id].bought==1,\"Item not bought yet\");\n        require(listedItems[listing_id].delivered==1,\"Item not delivered yet\");\n        string memory ret = listedItems[listing_id].encrypted_msg;\n        return ret;\n    }\n}\n",
  "sourcePath": "/workspaces/Ethereum_Smart_Contract/contracts/Netflix.sol",
  "compiler": {
    "name": "solc",
    "version": "0.5.16+commit.9c3226ce.Emscripten.clang"
  },
  "schemaVersion": "3.4.3",
  "updatedAt": "2021-09-23T05:51:46.792Z",
  "devdoc": {
    "methods": {}
  },
  "userdoc": {
    "methods": {}
  }
}