{
  "contractName": "Netflix",
  "abi": [
    {
      "constant": false,
      "inputs": [
        {
          "internalType": "string",
          "name": "_name",
          "type": "string"
        },
        {
          "internalType": "string",
          "name": "_description",
          "type": "string"
        },
        {
          "internalType": "uint256",
          "name": "_price",
          "type": "uint256"
        }
      ],
      "name": "listItem",
      "outputs": [],
      "payable": false,
      "stateMutability": "nonpayable",
      "type": "function"
    },
    {
      "constant": true,
      "inputs": [],
      "name": "viewAvailItems",
      "outputs": [
        {
          "internalType": "string",
          "name": "",
          "type": "string"
        }
      ],
      "payable": false,
      "stateMutability": "view",
      "type": "function"
    }
  ],
  "bytecode": "0x6080604052600080556000600155600060025534801561001e57600080fd5b50610db98061002e6000396000f3fe608060405234801561001057600080fd5b50600436106100365760003560e01c80630562021c1461003b5780635dd6db7614610197575b600080fd5b6101956004803603606081101561005157600080fd5b810190808035906020019064010000000081111561006e57600080fd5b82018360208201111561008057600080fd5b803590602001918460018302840111640100000000831117156100a257600080fd5b91908080601f016020809104026020016040519081016040528093929190818152602001838380828437600081840152601f19601f8201169050808301925050505050505091929192908035906020019064010000000081111561010557600080fd5b82018360208201111561011757600080fd5b8035906020019184600183028401116401000000008311171561013957600080fd5b91908080601f016020809104026020016040519081016040528093929190818152602001838380828437600081840152601f19601f8201169050808301925050505050505091929192908035906020019092919050505061021a565b005b61019f61054c565b6040518080602001828103825283818151815260200191508051906020019080838360005b838110156101df5780820151818401526020810190506101c4565b50505050905090810190601f16801561020c5780820380516001836020036101000a031916815260200191505b509250505060405180910390f35b6000600660003373ffffffffffffffffffffffffffffffffffffffff1673ffffffffffffffffffffffffffffffffffffffff16815260200190815260200160002054141561040a576000808154809291906001019190505550600054600660003373ffffffffffffffffffffffffffffffffffffffff1673ffffffffffffffffffffffffffffffffffffffff1681526020019081526020016000208190555033600460008054815260200190815260200160002060006101000a81548173ffffffffffffffffffffffffffffffffffffffff021916908373ffffffffffffffffffffffffffffffffffffffff16021790555060026000815480929190600101919050555060076040518061010001604052806002548152602001858152602001848152602001838152602001600054815260200160008152602001600081526020016000815250908060018154018082558091505090600182039060005260206000209060080201600090919290919091506000820151816000015560208201518160010190805190602001906103b2929190610c9a565b5060408201518160020190805190602001906103cf929190610c9a565b50606082015181600301556080820151816004015560a0820151816005015560c0820151816006015560e08201518160070155505050610547565b6000600660003373ffffffffffffffffffffffffffffffffffffffff1673ffffffffffffffffffffffffffffffffffffffff1681526020019081526020016000205490506002600081548092919060010191905055506007604051806101000160405280600254815260200186815260200185815260200184815260200183815260200160008152602001600081526020016000815250908060018154018082558091505090600182039060005260206000209060080201600090919290919091506000820151816000015560208201518160010190805190602001906104f2929190610c9a565b50604082015181600201908051906020019061050f929190610c9a565b50606082015181600301556080820151816004015560a0820151816005015560c0820151816006015560e08201518160070155505050505b505050565b60608060405180602001604052806000815250905060008090505b600780549050811015610aa85761057c610d1a565b6007828154811061058957fe5b90600052602060002090600802016040518061010001604052908160008201548152602001600182018054600181600116156101000203166002900480601f0160208091040260200160405190810160405280929190818152602001828054600181600116156101000203166002900480156106465780601f1061061b57610100808354040283529160200191610646565b820191906000526020600020905b81548152906001019060200180831161062957829003601f168201915b50505050508152602001600282018054600181600116156101000203166002900480601f0160208091040260200160405190810160405280929190818152602001828054600181600116156101000203166002900480156106e85780601f106106bd576101008083540402835291602001916106e8565b820191906000526020600020905b8154815290600101906020018083116106cb57829003601f168201915b5050505050815260200160038201548152602001600482015481526020016005820154815260200160068201548152602001600782015481525050905060008160a001511415610a9c57826107408260000151610b6d565b826020015183604001516107578560600151610b6d565b6040516020018086805190602001908083835b6020831061078d578051825260208201915060208101905060208303925061076a565b6001836020036101000a038019825116818451168082178552505050505050905001807f0a0a000000000000000000000000000000000000000000000000000000000000815250600201807f2a2a2a2a2a2a2a2a2a2a2a2a2a2a2a2a2a2a2a2a2a2a2a2a2a2a000000000000815250601a01807f0a00000000000000000000000000000000000000000000000000000000000000815250600101807f4c697374696e672049643a200000000000000000000000000000000000000000815250600c0185805190602001908083835b6020831061087e578051825260208201915060208101905060208303925061085b565b6001836020036101000a038019825116818451168082178552505050505050905001807f0a00000000000000000000000000000000000000000000000000000000000000815250600101807f4e616d653a20000000000000000000000000000000000000000000000000000081525060060184805190602001908083835b6020831061091f57805182526020820191506020810190506020830392506108fc565b6001836020036101000a038019825116818451168082178552505050505050905001807f0a00000000000000000000000000000000000000000000000000000000000000815250600101807f4465736372697074696f6e3a2000000000000000000000000000000000000000815250600d0183805190602001908083835b602083106109c0578051825260208201915060208101905060208303925061099d565b6001836020036101000a038019825116818451168082178552505050505050905001807f0a00000000000000000000000000000000000000000000000000000000000000815250600101807f50726963653a200000000000000000000000000000000000000000000000000081525060070182805190602001908083835b60208310610a615780518252602082019150602081019050602083039250610a3e565b6001836020036101000a0380198251168184511680821785525050505050509050019550505050505060405160208183030381529060405292505b50600181019050610567565b50806040516020018082805190602001908083835b60208310610ae05780518252602082019150602081019050602083039250610abd565b6001836020036101000a038019825116818451168082178552505050505050905001807f0a00000000000000000000000000000000000000000000000000000000000000815250600101807f2a2a2a2a2a2a2a2a2a2a2a2a2a2a2a2a2a2a2a2a2a2a2a2a2a2a2a0000000000815250601b0191505060405160208183030381529060405290508091505090565b60606000821415610bb5576040518060400160405280600181526020017f30000000000000000000000000000000000000000000000000000000000000008152509050610c95565b600082905060005b60008214610bdf578080600101915050600a8281610bd757fe5b049150610bbd565b6060816040519080825280601f01601f191660200182016040528015610c145781602001600182028038833980820191505090505b50905060008290508593505b60008414610c8d57600a8481610c3257fe5b0660300160f81b82826001900392508281518110610c4c57fe5b60200101907effffffffffffffffffffffffffffffffffffffffffffffffffffffffffffff1916908160001a905350600a8481610c8557fe5b049350610c20565b819450505050505b919050565b828054600181600116156101000203166002900490600052602060002090601f016020900481019282601f10610cdb57805160ff1916838001178555610d09565b82800160010185558215610d09579182015b82811115610d08578251825591602001919060010190610ced565b5b509050610d169190610d5f565b5090565b60405180610100016040528060008152602001606081526020016060815260200160008152602001600081526020016000815260200160008152602001600081525090565b610d8191905b80821115610d7d576000816000905550600101610d65565b5090565b9056fea265627a7a723158207120017fa30af80936d74a67b78dfd517c2d9ae74b6000adc6f7696d59f6664c64736f6c63430005100032",
  "source": "// SPDX-License-Identifier: MIT\npragma solidity >=0.4.22 <0.9.0;\n\ncontract Netflix {\n    struct Item{\n        uint listing_id;\n        string name;\n        string description;\n        uint price;\n        uint seller_id;\n        uint bought;\n        uint delivered;\n        uint buyer_id;\n    }\n\n    uint sellers = 0;\n    uint buyers = 0;\n    uint listed_items = 0;\n    mapping (uint => address payable) buyers_mapping;\n    mapping (uint => address) sellers_mapping;\n\n    mapping (address => uint) reverse_buyers_mapping;\n    mapping (address => uint) reverse_sellers_mapping;\n\n    Item[] listedItems;\n\n    function uint2str(uint256 _i) internal pure returns (string memory str)\n    {\n    if (_i == 0)\n    {\n        return \"0\";\n    }\n    uint256 j = _i;\n    uint256 length;\n    while (j != 0)\n    {\n        length++;\n        j /= 10;\n    }\n    bytes memory bstr = new bytes(length);\n    uint256 k = length;\n    j = _i;\n    while (j != 0)\n    {\n        bstr[--k] = bytes1(uint8(48 + j % 10));\n        j /= 10;\n    }\n    str = string(bstr);\n    }\n\n    function listItem(string memory _name, string memory _description, uint _price) public\n    {\n        if(reverse_sellers_mapping[msg.sender]==0)\n        {\n            sellers++;\n            reverse_sellers_mapping[msg.sender] = sellers;\n            sellers_mapping[sellers] = msg.sender;\n            listed_items++;\n            listedItems.push(Item(listed_items,_name,_description,_price,sellers,0,0,0));\n        }\n        else\n        {\n            uint temp_seller_id = reverse_sellers_mapping[msg.sender];\n            listed_items++;\n            listedItems.push(Item(listed_items,_name,_description,_price,temp_seller_id,0,0,0));\n        }\n    }\n\n    function viewAvailItems() public view returns(string memory)\n    {\n        string memory ret = \"\";\n        for (uint i=0; i < listedItems.length; i+=1) \n        {\n            Item memory cur = listedItems[i];\n            if (cur.bought == 0){\n                ret = string(abi.encodePacked(ret,\"\\n\\n\",\"**************************\",\"\\n\",\"Listing Id: \",uint2str(cur.listing_id),\"\\n\",\"Name: \",cur.name,\"\\n\",\"Description: \",cur.description,\"\\n\",\"Price: \",uint2str(cur.price)));\n            }\n        }\n        ret = string(abi.encodePacked(ret,\"\\n\",\"***************************\"));\n        return ret;\n    }\n\n}\n",
  "sourcePath": "/home/akshit/Documents/SEM7/Blockchain/new_netflix_screen/contracts/Netflix.sol",
  "compiler": {
    "name": "solc",
    "version": "0.5.16+commit.9c3226ce.Emscripten.clang"
  },
  "schemaVersion": "3.4.3",
  "updatedAt": "2021-09-21T11:32:32.647Z",
  "networkType": "ethereum",
  "devdoc": {
    "methods": {}
  },
  "userdoc": {
    "methods": {}
  }
}