{
  "contractName": "Netflix",
  "abi": [
    {
      "constant": false,
      "inputs": [
        {
          "internalType": "string",
          "name": "_name",
          "type": "string"
        },
        {
          "internalType": "string",
          "name": "_description",
          "type": "string"
        },
        {
          "internalType": "uint256",
          "name": "_price",
          "type": "uint256"
        }
      ],
      "name": "listItem",
      "outputs": [],
      "payable": false,
      "stateMutability": "nonpayable",
      "type": "function"
    },
    {
      "constant": true,
      "inputs": [],
      "name": "viewAvailItems",
      "outputs": [
        {
          "internalType": "string",
          "name": "",
          "type": "string"
        }
      ],
      "payable": false,
      "stateMutability": "view",
      "type": "function"
    },
    {
      "constant": false,
      "inputs": [
        {
          "internalType": "uint256",
          "name": "listing_id",
          "type": "uint256"
        }
      ],
      "name": "buyItem",
      "outputs": [],
      "payable": true,
      "stateMutability": "payable",
      "type": "function"
    }
  ],
  "bytecode": "0x6080604052600080556000600155600060025534801561001e57600080fd5b5061116a8061002e6000396000f3fe6080604052600436106100345760003560e01c80630562021c146100395780635dd6db76146101a2578063e7fb74c714610232575b600080fd5b34801561004557600080fd5b506101a06004803603606081101561005c57600080fd5b810190808035906020019064010000000081111561007957600080fd5b82018360208201111561008b57600080fd5b803590602001918460018302840111640100000000831117156100ad57600080fd5b91908080601f016020809104026020016040519081016040528093929190818152602001838380828437600081840152601f19601f8201169050808301925050505050505091929192908035906020019064010000000081111561011057600080fd5b82018360208201111561012257600080fd5b8035906020019184600183028401116401000000008311171561014457600080fd5b91908080601f016020809104026020016040519081016040528093929190818152602001838380828437600081840152601f19601f82011690508083019250505050505050919291929080359060200190929190505050610260565b005b3480156101ae57600080fd5b506101b7610592565b6040518080602001828103825283818151815260200191508051906020019080838360005b838110156101f75780820151818401526020810190506101dc565b50505050905090810190601f1680156102245780820380516001836020036101000a031916815260200191505b509250505060405180910390f35b61025e6004803603602081101561024857600080fd5b8101908080359060200190929190505050610bb3565b005b6000600660003373ffffffffffffffffffffffffffffffffffffffff1673ffffffffffffffffffffffffffffffffffffffff168152602001908152602001600020541415610450576000808154809291906001019190505550600054600660003373ffffffffffffffffffffffffffffffffffffffff1673ffffffffffffffffffffffffffffffffffffffff1681526020019081526020016000208190555033600460008054815260200190815260200160002060006101000a81548173ffffffffffffffffffffffffffffffffffffffff021916908373ffffffffffffffffffffffffffffffffffffffff16021790555060076040518061010001604052806002548152602001858152602001848152602001838152602001600054815260200160008152602001600081526020016000815250908060018154018082558091505090600182039060005260206000209060080201600090919290919091506000820151816000015560208201518160010190805190602001906103e6929190611007565b506040820151816002019080519060200190610403929190611007565b50606082015181600301556080820151816004015560a0820151816005015560c0820151816006015560e0820151816007015550505060026000815480929190600101919050555061058d565b6000600660003373ffffffffffffffffffffffffffffffffffffffff1673ffffffffffffffffffffffffffffffffffffffff168152602001908152602001600020549050600760405180610100016040528060025481526020018681526020018581526020018481526020018381526020016000815260200160008152602001600081525090806001815401808255809150509060018203906000526020600020906008020160009091929091909150600082015181600001556020820151816001019080519060200190610526929190611007565b506040820151816002019080519060200190610543929190611007565b50606082015181600301556080820151816004015560a0820151816005015560c0820151816006015560e08201518160070155505050600260008154809291906001019190505550505b505050565b60608060405180602001604052806000815250905060008090505b600780549050811015610aee576105c2611087565b600782815481106105cf57fe5b90600052602060002090600802016040518061010001604052908160008201548152602001600182018054600181600116156101000203166002900480601f01602080910402602001604051908101604052809291908181526020018280546001816001161561010002031660029004801561068c5780601f106106615761010080835404028352916020019161068c565b820191906000526020600020905b81548152906001019060200180831161066f57829003601f168201915b50505050508152602001600282018054600181600116156101000203166002900480601f01602080910402602001604051908101604052809291908181526020018280546001816001161561010002031660029004801561072e5780601f106107035761010080835404028352916020019161072e565b820191906000526020600020905b81548152906001019060200180831161071157829003601f168201915b5050505050815260200160038201548152602001600482015481526020016005820154815260200160068201548152602001600782015481525050905060008160a001511415610ae257826107868260000151610eda565b8260200151836040015161079d8560600151610eda565b6040516020018086805190602001908083835b602083106107d357805182526020820191506020810190506020830392506107b0565b6001836020036101000a038019825116818451168082178552505050505050905001807f0a0a000000000000000000000000000000000000000000000000000000000000815250600201807f2a2a2a2a2a2a2a2a2a2a2a2a2a2a2a2a2a2a2a2a2a2a2a2a2a2a000000000000815250601a01807f0a00000000000000000000000000000000000000000000000000000000000000815250600101807f4c697374696e672049643a200000000000000000000000000000000000000000815250600c0185805190602001908083835b602083106108c457805182526020820191506020810190506020830392506108a1565b6001836020036101000a038019825116818451168082178552505050505050905001807f0a00000000000000000000000000000000000000000000000000000000000000815250600101807f4e616d653a20000000000000000000000000000000000000000000000000000081525060060184805190602001908083835b602083106109655780518252602082019150602081019050602083039250610942565b6001836020036101000a038019825116818451168082178552505050505050905001807f0a00000000000000000000000000000000000000000000000000000000000000815250600101807f4465736372697074696f6e3a2000000000000000000000000000000000000000815250600d0183805190602001908083835b60208310610a0657805182526020820191506020810190506020830392506109e3565b6001836020036101000a038019825116818451168082178552505050505050905001807f0a00000000000000000000000000000000000000000000000000000000000000815250600101807f50726963653a200000000000000000000000000000000000000000000000000081525060070182805190602001908083835b60208310610aa75780518252602082019150602081019050602083039250610a84565b6001836020036101000a0380198251168184511680821785525050505050509050019550505050505060405160208183030381529060405292505b506001810190506105ad565b50806040516020018082805190602001908083835b60208310610b265780518252602082019150602081019050602083039250610b03565b6001836020036101000a038019825116818451168082178552505050505050905001807f0a00000000000000000000000000000000000000000000000000000000000000815250600101807f2a2a2a2a2a2a2a2a2a2a2a2a2a2a2a2a2a2a2a2a2a2a2a2a2a2a2a0000000000815250601b0191505060405160208183030381529060405290508091505090565b60078181548110610bc057fe5b9060005260206000209060080201600301543414610c29576040517f08c379a00000000000000000000000000000000000000000000000000000000081526004018080602001828103825260448152602001806110f26044913960600191505060405180910390fd5b6000600560003373ffffffffffffffffffffffffffffffffffffffff1673ffffffffffffffffffffffffffffffffffffffff168152602001908152602001600020541415610dfc57600160008154809291906001019190505550600154600560003373ffffffffffffffffffffffffffffffffffffffff1673ffffffffffffffffffffffffffffffffffffffff168152602001908152602001600020819055503360036000600154815260200190815260200160002060006101000a81548173ffffffffffffffffffffffffffffffffffffffff021916908373ffffffffffffffffffffffffffffffffffffffff160217905550600160078281548110610d2c57fe5b9060005260206000209060080201600501819055506004600060078381548110610d5257fe5b906000526020600020906008020160040154815260200190815260200160002060009054906101000a900473ffffffffffffffffffffffffffffffffffffffff1673ffffffffffffffffffffffffffffffffffffffff166108fc60078381548110610db957fe5b9060005260206000209060080201600301549081150290604051600060405180830381858888f19350505050158015610df6573d6000803e3d6000fd5b50610ed7565b600160078281548110610e0b57fe5b9060005260206000209060080201600501819055506004600060078381548110610e3157fe5b906000526020600020906008020160040154815260200190815260200160002060009054906101000a900473ffffffffffffffffffffffffffffffffffffffff1673ffffffffffffffffffffffffffffffffffffffff166108fc60078381548110610e9857fe5b9060005260206000209060080201600301549081150290604051600060405180830381858888f19350505050158015610ed5573d6000803e3d6000fd5b505b50565b60606000821415610f22576040518060400160405280600181526020017f30000000000000000000000000000000000000000000000000000000000000008152509050611002565b600082905060005b60008214610f4c578080600101915050600a8281610f4457fe5b049150610f2a565b6060816040519080825280601f01601f191660200182016040528015610f815781602001600182028038833980820191505090505b50905060008290508593505b60008414610ffa57600a8481610f9f57fe5b0660300160f81b82826001900392508281518110610fb957fe5b60200101907effffffffffffffffffffffffffffffffffffffffffffffffffffffffffffff1916908160001a905350600a8481610ff257fe5b049350610f8d565b819450505050505b919050565b828054600181600116156101000203166002900490600052602060002090601f016020900481019282601f1061104857805160ff1916838001178555611076565b82800160010185558215611076579182015b8281111561107557825182559160200191906001019061105a565b5b50905061108391906110cc565b5090565b60405180610100016040528060008152602001606081526020016060815260200160008152602001600081526020016000815260200160008152602001600081525090565b6110ee91905b808211156110ea5760008160009055506001016110d2565b5090565b9056fe57726f6e6720616d6f756e7420706169642e20506c65617365207061792074686520636f727265637420616d6f756e7420746f20636c61696d20796f7572206974656d2ea265627a7a723158203f8560555156217356ec5580a570cad281de3c09d062cae00f297d6470efe92164736f6c63430005100032",
  "source": "// SPDX-License-Identifier: MIT\npragma solidity 0.5.16;\n\ncontract Netflix {\n    struct Item{\n        uint listing_id;\n        string name;\n        string description;\n        uint price;\n        uint seller_id;\n        uint bought;\n        uint delivered;\n        uint buyer_id;\n    }\n\n    uint sellers = 0;\n    uint buyers = 0;\n    uint listed_items = 0;\n    mapping (uint => address) buyers_mapping;\n    mapping (uint => address payable) sellers_mapping;\n\n    mapping (address => uint) reverse_buyers_mapping;\n    mapping (address => uint) reverse_sellers_mapping;\n\n    Item[] listedItems;\n\n    function uint2str(uint256 _i) internal pure returns (string memory str)\n    {\n        if (_i == 0)\n        {\n            return \"0\";\n        }\n        uint256 j = _i;\n        uint256 length;\n        while (j != 0)\n        {\n            length++;\n            j /= 10;\n        }\n        bytes memory bstr = new bytes(length);\n        uint256 k = length;\n        j = _i;\n        while (j != 0)\n        {\n            bstr[--k] = bytes1(uint8(48 + j % 10));\n            j /= 10;\n        }\n        str = string(bstr);\n    }\n\n    function listItem(string memory _name, string memory _description, uint _price) public\n    {\n        if(reverse_sellers_mapping[msg.sender]==0)\n        {\n            sellers++;\n            reverse_sellers_mapping[msg.sender] = sellers;\n            sellers_mapping[sellers] = address(uint160(msg.sender));\n            listedItems.push(Item(listed_items,_name,_description,_price,sellers,0,0,0));\n            listed_items++;\n        }\n        else\n        {\n            uint temp_seller_id = reverse_sellers_mapping[msg.sender];\n            listedItems.push(Item(listed_items,_name,_description,_price,temp_seller_id,0,0,0));\n            listed_items++;\n        }\n    }\n\n    function viewAvailItems() public view returns(string memory)\n    {\n        string memory ret = \"\";\n        for (uint i=0; i < listedItems.length; i+=1) \n        {\n            Item memory cur = listedItems[i];\n            if (cur.bought == 0)\n            {\n                ret = string(abi.encodePacked(ret,\"\\n\\n\",\"**************************\",\"\\n\",\"Listing Id: \",uint2str(cur.listing_id),\"\\n\",\"Name: \",cur.name,\"\\n\",\"Description: \",cur.description,\"\\n\",\"Price: \",uint2str(cur.price)));\n            }\n        }\n        ret = string(abi.encodePacked(ret,\"\\n\",\"***************************\"));\n        return ret;\n    }\n\n    function buyItem(uint listing_id) public payable\n    {\n        require(msg.value==listedItems[listing_id].price,\"Wrong amount paid. Please pay the correct amount to claim your item.\");\n        if(reverse_buyers_mapping[msg.sender]==0)\n        {\n            buyers++;\n            reverse_buyers_mapping[msg.sender] = buyers;\n            buyers_mapping[buyers] = msg.sender;\n            listedItems[listing_id].bought = 1;\n            sellers_mapping[listedItems[listing_id].seller_id].transfer(listedItems[listing_id].price);\n        }\n        else\n        {\n            listedItems[listing_id].bought = 1;\n            sellers_mapping[listedItems[listing_id].seller_id].transfer(listedItems[listing_id].price);\n        }\n    }\n\n}\n",
  "sourcePath": "/home/akshit/Documents/SEM7/Blockchain/new_netflix_screen/contracts/Netflix.sol",
  "compiler": {
    "name": "solc",
    "version": "0.5.16+commit.9c3226ce.Emscripten.clang"
  },
  "schemaVersion": "3.4.3",
  "updatedAt": "2021-09-21T14:21:31.558Z",
  "networkType": "ethereum",
  "devdoc": {
    "methods": {}
  },
  "userdoc": {
    "methods": {}
  }
}